{
  "_format": "hh-sol-artifact-1",
  "contractName": "BuyMeCoffee",
  "sourceName": "contracts/BuyMeCoffee.sol",
  "abi": [
    {
      "inputs": [],
      "stateMutability": "nonpayable",
      "type": "constructor"
    },
    {
      "anonymous": false,
      "inputs": [
        {
          "indexed": true,
          "internalType": "address",
          "name": "from",
          "type": "address"
        },
        {
          "indexed": false,
          "internalType": "uint256",
          "name": "timestamp",
          "type": "uint256"
        },
        {
          "indexed": false,
          "internalType": "string",
          "name": "message",
          "type": "string"
        },
        {
          "indexed": false,
          "internalType": "string",
          "name": "name",
          "type": "string"
        }
      ],
      "name": "NewMemo",
      "type": "event"
    },
    {
      "stateMutability": "payable",
      "type": "fallback"
    },
    {
      "inputs": [
        {
          "internalType": "string",
          "name": "_name",
          "type": "string"
        },
        {
          "internalType": "string",
          "name": "_message",
          "type": "string"
        }
      ],
      "name": "buyCoffee",
      "outputs": [],
      "stateMutability": "payable",
      "type": "function"
    },
    {
      "inputs": [
        {
          "internalType": "uint256",
          "name": "_index",
          "type": "uint256"
        }
      ],
      "name": "getMemo",
      "outputs": [
        {
          "internalType": "address",
          "name": "",
          "type": "address"
        },
        {
          "internalType": "uint256",
          "name": "",
          "type": "uint256"
        },
        {
          "internalType": "string",
          "name": "",
          "type": "string"
        },
        {
          "internalType": "string",
          "name": "",
          "type": "string"
        }
      ],
      "stateMutability": "view",
      "type": "function"
    },
    {
      "inputs": [],
      "name": "getMemos",
      "outputs": [
        {
          "components": [
            {
              "internalType": "address",
              "name": "from",
              "type": "address"
            },
            {
              "internalType": "uint256",
              "name": "timestamp",
              "type": "uint256"
            },
            {
              "internalType": "string",
              "name": "name",
              "type": "string"
            },
            {
              "internalType": "string",
              "name": "message",
              "type": "string"
            }
          ],
          "internalType": "struct BuyMeCoffee.Memo[]",
          "name": "",
          "type": "tuple[]"
        }
      ],
      "stateMutability": "view",
      "type": "function"
    },
    {
      "inputs": [],
      "name": "getMemosCount",
      "outputs": [
        {
          "internalType": "uint256",
          "name": "",
          "type": "uint256"
        }
      ],
      "stateMutability": "view",
      "type": "function"
    },
    {
      "inputs": [],
      "name": "getOwner",
      "outputs": [
        {
          "internalType": "address",
          "name": "",
          "type": "address"
        }
      ],
      "stateMutability": "view",
      "type": "function"
    },
    {
      "inputs": [
        {
          "internalType": "uint256",
          "name": "",
          "type": "uint256"
        }
      ],
      "name": "memos",
      "outputs": [
        {
          "internalType": "address",
          "name": "from",
          "type": "address"
        },
        {
          "internalType": "uint256",
          "name": "timestamp",
          "type": "uint256"
        },
        {
          "internalType": "string",
          "name": "name",
          "type": "string"
        },
        {
          "internalType": "string",
          "name": "message",
          "type": "string"
        }
      ],
      "stateMutability": "view",
      "type": "function"
    },
    {
      "inputs": [],
      "name": "owner",
      "outputs": [
        {
          "internalType": "address payable",
          "name": "",
          "type": "address"
        }
      ],
      "stateMutability": "view",
      "type": "function"
    },
    {
      "inputs": [],
      "name": "withdraw",
      "outputs": [],
      "stateMutability": "nonpayable",
      "type": "function"
    },
    {
      "stateMutability": "payable",
      "type": "receive"
    }
  ],
  "bytecode": "0x608060405234801561001057600080fd5b5033600160006101000a81548173ffffffffffffffffffffffffffffffffffffffff021916908373ffffffffffffffffffffffffffffffffffffffff160217905550611237806100616000396000f3fe60806040526004361061007f5760003560e01c8063893d20e81161004e578063893d20e8146101265780638da5cb5b146101515780639935db881461017c578063e8dfdf04146101a757610086565b8063204206e1146100885780633ccfd60b146100a457806375f31470146100bb578063865c5172146100fb57610086565b3661008657005b005b6100a2600480360381019061009d9190610c00565b6101e7565b005b3480156100b057600080fd5b506100b9610376565b005b3480156100c757600080fd5b506100e260048036038101906100dd9190610cae565b610471565b6040516100f29493929190610db3565b60405180910390f35b34801561010757600080fd5b50610110610654565b60405161011d9190610f9a565b60405180910390f35b34801561013257600080fd5b5061013b610837565b6040516101489190610fbc565b60405180910390f35b34801561015d57600080fd5b50610166610861565b6040516101739190610ff8565b60405180910390f35b34801561018857600080fd5b50610191610887565b60405161019e9190611013565b60405180910390f35b3480156101b357600080fd5b506101ce60048036038101906101c99190610cae565b610893565b6040516101de9493929190610db3565b60405180910390f35b662386f26fc10000341015610231576040517f08c379a00000000000000000000000000000000000000000000000000000000081526004016102289061107a565b60405180910390fd5b600060405180608001604052803373ffffffffffffffffffffffffffffffffffffffff16815260200142815260200184815260200183815250908060018154018082558091505060019003906000526020600020906004020160009091909190915060008201518160000160006101000a81548173ffffffffffffffffffffffffffffffffffffffff021916908373ffffffffffffffffffffffffffffffffffffffff160217905550602082015181600101556040820151816002019080519060200190610300929190610a03565b50606082015181600301908051906020019061031d929190610a03565b5050503373ffffffffffffffffffffffffffffffffffffffff167fc56140e05f516509ae28110e0f72e17558a7561630dad2647c3ae87d986e365c42838560405161036a9392919061109a565b60405180910390a25050565b600160009054906101000a900473ffffffffffffffffffffffffffffffffffffffff1673ffffffffffffffffffffffffffffffffffffffff163373ffffffffffffffffffffffffffffffffffffffff1614610406576040517f08c379a00000000000000000000000000000000000000000000000000000000081526004016103fd90611151565b60405180910390fd5b600160009054906101000a900473ffffffffffffffffffffffffffffffffffffffff1673ffffffffffffffffffffffffffffffffffffffff166108fc479081150290604051600060405180830381858888f1935050505015801561046e573d6000803e3d6000fd5b50565b6000806060806000858154811061048b5761048a611171565b5b906000526020600020906004020160000160009054906101000a900473ffffffffffffffffffffffffffffffffffffffff16600086815481106104d1576104d0611171565b5b906000526020600020906004020160010154600087815481106104f7576104f6611171565b5b90600052602060002090600402016002016000888154811061051c5761051b611171565b5b9060005260206000209060040201600301818054610539906111cf565b80601f0160208091040260200160405190810160405280929190818152602001828054610565906111cf565b80156105b25780601f10610587576101008083540402835291602001916105b2565b820191906000526020600020905b81548152906001019060200180831161059557829003601f168201915b505050505091508080546105c5906111cf565b80601f01602080910402602001604051908101604052809291908181526020018280546105f1906111cf565b801561063e5780601f106106135761010080835404028352916020019161063e565b820191906000526020600020905b81548152906001019060200180831161062157829003601f168201915b5050505050905093509350935093509193509193565b60606000805480602002602001604051908101604052809291908181526020016000905b8282101561082e57838290600052602060002090600402016040518060800160405290816000820160009054906101000a900473ffffffffffffffffffffffffffffffffffffffff1673ffffffffffffffffffffffffffffffffffffffff1673ffffffffffffffffffffffffffffffffffffffff1681526020016001820154815260200160028201805461070b906111cf565b80601f0160208091040260200160405190810160405280929190818152602001828054610737906111cf565b80156107845780601f1061075957610100808354040283529160200191610784565b820191906000526020600020905b81548152906001019060200180831161076757829003601f168201915b5050505050815260200160038201805461079d906111cf565b80601f01602080910402602001604051908101604052809291908181526020018280546107c9906111cf565b80156108165780601f106107eb57610100808354040283529160200191610816565b820191906000526020600020905b8154815290600101906020018083116107f957829003601f168201915b50505050508152505081526020019060010190610678565b50505050905090565b6000600160009054906101000a900473ffffffffffffffffffffffffffffffffffffffff16905090565b600160009054906101000a900473ffffffffffffffffffffffffffffffffffffffff1681565b60008080549050905090565b600081815481106108a357600080fd5b90600052602060002090600402016000915090508060000160009054906101000a900473ffffffffffffffffffffffffffffffffffffffff16908060010154908060020180546108f2906111cf565b80601f016020809104026020016040519081016040528092919081815260200182805461091e906111cf565b801561096b5780601f106109405761010080835404028352916020019161096b565b820191906000526020600020905b81548152906001019060200180831161094e57829003601f168201915b505050505090806003018054610980906111cf565b80601f01602080910402602001604051908101604052809291908181526020018280546109ac906111cf565b80156109f95780601f106109ce576101008083540402835291602001916109f9565b820191906000526020600020905b8154815290600101906020018083116109dc57829003601f168201915b5050505050905084565b828054610a0f906111cf565b90600052602060002090601f016020900481019282610a315760008555610a78565b82601f10610a4a57805160ff1916838001178555610a78565b82800160010185558215610a78579182015b82811115610a77578251825591602001919060010190610a5c565b5b509050610a859190610a89565b5090565b5b80821115610aa2576000816000905550600101610a8a565b5090565b6000604051905090565b600080fd5b600080fd5b600080fd5b600080fd5b6000601f19601f8301169050919050565b7f4e487b7100000000000000000000000000000000000000000000000000000000600052604160045260246000fd5b610b0d82610ac4565b810181811067ffffffffffffffff82111715610b2c57610b2b610ad5565b5b80604052505050565b6000610b3f610aa6565b9050610b4b8282610b04565b919050565b600067ffffffffffffffff821115610b6b57610b6a610ad5565b5b610b7482610ac4565b9050602081019050919050565b82818337600083830152505050565b6000610ba3610b9e84610b50565b610b35565b905082815260208101848484011115610bbf57610bbe610abf565b5b610bca848285610b81565b509392505050565b600082601f830112610be757610be6610aba565b5b8135610bf7848260208601610b90565b91505092915050565b60008060408385031215610c1757610c16610ab0565b5b600083013567ffffffffffffffff811115610c3557610c34610ab5565b5b610c4185828601610bd2565b925050602083013567ffffffffffffffff811115610c6257610c61610ab5565b5b610c6e85828601610bd2565b9150509250929050565b6000819050919050565b610c8b81610c78565b8114610c9657600080fd5b50565b600081359050610ca881610c82565b92915050565b600060208284031215610cc457610cc3610ab0565b5b6000610cd284828501610c99565b91505092915050565b600073ffffffffffffffffffffffffffffffffffffffff82169050919050565b6000610d0682610cdb565b9050919050565b610d1681610cfb565b82525050565b610d2581610c78565b82525050565b600081519050919050565b600082825260208201905092915050565b60005b83811015610d65578082015181840152602081019050610d4a565b83811115610d74576000848401525b50505050565b6000610d8582610d2b565b610d8f8185610d36565b9350610d9f818560208601610d47565b610da881610ac4565b840191505092915050565b6000608082019050610dc86000830187610d0d565b610dd56020830186610d1c565b8181036040830152610de78185610d7a565b90508181036060830152610dfb8184610d7a565b905095945050505050565b600081519050919050565b600082825260208201905092915050565b6000819050602082019050919050565b610e3b81610cfb565b82525050565b610e4a81610c78565b82525050565b600082825260208201905092915050565b6000610e6c82610d2b565b610e768185610e50565b9350610e86818560208601610d47565b610e8f81610ac4565b840191505092915050565b6000608083016000830151610eb26000860182610e32565b506020830151610ec56020860182610e41565b5060408301518482036040860152610edd8282610e61565b91505060608301518482036060860152610ef78282610e61565b9150508091505092915050565b6000610f108383610e9a565b905092915050565b6000602082019050919050565b6000610f3082610e06565b610f3a8185610e11565b935083602082028501610f4c85610e22565b8060005b85811015610f885784840389528151610f698582610f04565b9450610f7483610f18565b925060208a01995050600181019050610f50565b50829750879550505050505092915050565b60006020820190508181036000830152610fb48184610f25565b905092915050565b6000602082019050610fd16000830184610d0d565b92915050565b6000610fe282610cdb565b9050919050565b610ff281610fd7565b82525050565b600060208201905061100d6000830184610fe9565b92915050565b60006020820190506110286000830184610d1c565b92915050565b7f4e6f7420656e6f7567682045544820746f20627579206120636f666665650000600082015250565b6000611064601e83610d36565b915061106f8261102e565b602082019050919050565b6000602082019050818103600083015261109381611057565b9050919050565b60006060820190506110af6000830186610d1c565b81810360208301526110c18185610d7a565b905081810360408301526110d58184610d7a565b9050949350505050565b7f4f6e6c79206f776e65722063616e2063616c6c20746869732066756e6374696f60008201527f6e2e000000000000000000000000000000000000000000000000000000000000602082015250565b600061113b602283610d36565b9150611146826110df565b604082019050919050565b6000602082019050818103600083015261116a8161112e565b9050919050565b7f4e487b7100000000000000000000000000000000000000000000000000000000600052603260045260246000fd5b7f4e487b7100000000000000000000000000000000000000000000000000000000600052602260045260246000fd5b600060028204905060018216806111e757607f821691505b602082108114156111fb576111fa6111a0565b5b5091905056fea264697066735822122088774f35a6046468cbade5b82e4b9891e7f019ce7f7ada2d43a2c223bd708b6b64736f6c63430008090033",
  "linkReferences": {},
  "deployedLinkReferences": {}
}